{
  "_format": "hh-sol-artifact-1",
  "contractName": "Web3RSVP",
  "sourceName": "contracts/Web3rsvp.sol",
  "abi": [
    {
      "anonymous": false,
      "inputs": [
        {
          "indexed": false,
          "internalType": "bytes32",
          "name": "eventID",
          "type": "bytes32"
        }
      ],
      "name": "DepositsPaidOut",
      "type": "event"
    },
    {
      "anonymous": false,
      "inputs": [
        {
          "indexed": false,
          "internalType": "bytes32",
          "name": "eventID",
          "type": "bytes32"
        },
        {
          "indexed": false,
          "internalType": "address",
          "name": "creatorAddress",
          "type": "address"
        },
        {
          "indexed": false,
          "internalType": "uint256",
          "name": "eventTimestamp",
          "type": "uint256"
        },
        {
          "indexed": false,
          "internalType": "uint256",
          "name": "maxCapacity",
          "type": "uint256"
        },
        {
          "indexed": false,
          "internalType": "uint256",
          "name": "deposit",
          "type": "uint256"
        },
        {
          "indexed": false,
          "internalType": "string",
          "name": "eventDataCID",
          "type": "string"
        }
      ],
      "name": "NewEventCreated",
      "type": "event"
    },
    {
      "anonymous": false,
      "inputs": [
        {
          "indexed": false,
          "internalType": "bytes32",
          "name": "eventID",
          "type": "bytes32"
        },
        {
          "indexed": false,
          "internalType": "address",
          "name": "attendeeAddress",
          "type": "address"
        }
      ],
      "name": "NewRSVP",
      "type": "event"
    },
    {
      "anonymous": false,
      "inputs": [
        {
          "indexed": false,
          "internalType": "bytes32",
          "name": "eventId",
          "type": "bytes32"
        },
        {
          "indexed": false,
          "internalType": "address",
          "name": "attendeeAddress",
          "type": "address"
        }
      ],
      "name": "confirmedAttendee",
      "type": "event"
    },
    {
      "inputs": [
        {
          "internalType": "uint256",
          "name": "eventTimestamp",
          "type": "uint256"
        },
        {
          "internalType": "uint256",
          "name": "deposit",
          "type": "uint256"
        },
        {
          "internalType": "uint256",
          "name": "maxCapacity",
          "type": "uint256"
        },
        {
          "internalType": "string",
          "name": "eventDataCID",
          "type": "string"
        }
      ],
      "name": "CreateNewEvent",
      "outputs": [],
      "stateMutability": "nonpayable",
      "type": "function"
    },
    {
      "inputs": [
        {
          "internalType": "bytes32",
          "name": "eventId",
          "type": "bytes32"
        }
      ],
      "name": "confirmAllAttendees",
      "outputs": [],
      "stateMutability": "nonpayable",
      "type": "function"
    },
    {
      "inputs": [
        {
          "internalType": "bytes32",
          "name": "eventId",
          "type": "bytes32"
        },
        {
          "internalType": "address",
          "name": "attendee",
          "type": "address"
        }
      ],
      "name": "confirmAttendee",
      "outputs": [],
      "stateMutability": "nonpayable",
      "type": "function"
    },
    {
      "inputs": [
        {
          "internalType": "bytes32",
          "name": "eventId",
          "type": "bytes32"
        }
      ],
      "name": "createNewRSVP",
      "outputs": [],
      "stateMutability": "payable",
      "type": "function"
    },
    {
      "inputs": [
        {
          "internalType": "bytes32",
          "name": "",
          "type": "bytes32"
        }
      ],
      "name": "idToEvent",
      "outputs": [
        {
          "internalType": "bytes32",
          "name": "eventId",
          "type": "bytes32"
        },
        {
          "internalType": "string",
          "name": "eventDataCID",
          "type": "string"
        },
        {
          "internalType": "address",
          "name": "eventOwner",
          "type": "address"
        },
        {
          "internalType": "uint256",
          "name": "eventTimestamp",
          "type": "uint256"
        },
        {
          "internalType": "uint256",
          "name": "deposit",
          "type": "uint256"
        },
        {
          "internalType": "uint256",
          "name": "maxCapacity",
          "type": "uint256"
        },
        {
          "internalType": "bool",
          "name": "paidOut",
          "type": "bool"
        }
      ],
      "stateMutability": "view",
      "type": "function"
    },
    {
      "inputs": [
        {
          "internalType": "bytes32",
          "name": "eventId",
          "type": "bytes32"
        }
      ],
      "name": "withdrawUnclaimedDeposits",
      "outputs": [],
      "stateMutability": "nonpayable",
      "type": "function"
    }
  ],
  "bytecode": "0x608060405234801561001057600080fd5b50612227806100206000396000f3fe6080604052600436106100555760003560e01c806317f0165a1461005a5780636dcdf2cd14610076578063797475711461009f578063909ef021146100c8578063a10ed16e1461010b578063acdbe01214610134575b600080fd5b610074600480360381019061006f919061159f565b61015d565b005b34801561008257600080fd5b5061009d600480360381019061009891906115c8565b6103f0565b005b3480156100ab57600080fd5b506100c660048036038101906100c1919061159f565b6108e1565b005b3480156100d457600080fd5b506100ef60048036038101906100ea919061159f565b610d27565b6040516101029796959493929190611a83565b60405180910390f35b34801561011757600080fd5b50610132600480360381019061012d9190611604565b610e1e565b005b34801561014057600080fd5b5061015b6004803603810190610156919061159f565b611092565b005b60008060008381526020019081526020016000209050806004015434146101b9576040517f08c379a00000000000000000000000000000000000000000000000000000000081526004016101b090611c39565b60405180910390fd5b8060030154421115610200576040517f08c379a00000000000000000000000000000000000000000000000000000000081526004016101f790611b99565b60405180910390fd5b806005015481600601805490501061024d576040517f08c379a000000000000000000000000000000000000000000000000000000000815260040161024490611af9565b60405180910390fd5b60005b81600601805490508160ff16101561034d573373ffffffffffffffffffffffffffffffffffffffff16826006018260ff16815481106102b8577f4e487b7100000000000000000000000000000000000000000000000000000000600052603260045260246000fd5b9060005260206000200160009054906101000a900473ffffffffffffffffffffffffffffffffffffffff1673ffffffffffffffffffffffffffffffffffffffff16141561033a576040517f08c379a000000000000000000000000000000000000000000000000000000000815260040161033190611bb9565b60405180910390fd5b808061034590611e97565b915050610250565b5080600601339080600181540180825580915050600190039060005260206000200160009091909190916101000a81548173ffffffffffffffffffffffffffffffffffffffff021916908373ffffffffffffffffffffffffffffffffffffffff1602179055507fb79f4240bbdd272d98e02a5db7f0cf156e5fc000961c517670a26eeeec63ed9082336040516103e49291906119f0565b60405180910390a15050565b600080600084815260200190815260200160002090508060020160009054906101000a900473ffffffffffffffffffffffffffffffffffffffff1673ffffffffffffffffffffffffffffffffffffffff163373ffffffffffffffffffffffffffffffffffffffff1614610498576040517f08c379a000000000000000000000000000000000000000000000000000000000815260040161048f90611b79565b60405180910390fd5b600080600090505b82600601805490508160ff1610156105cf578373ffffffffffffffffffffffffffffffffffffffff16836006018260ff1681548110610508577f4e487b7100000000000000000000000000000000000000000000000000000000600052603260045260246000fd5b9060005260206000200160009054906101000a900473ffffffffffffffffffffffffffffffffffffffff1673ffffffffffffffffffffffffffffffffffffffff1614156105bc57826006018160ff168154811061058e577f4e487b7100000000000000000000000000000000000000000000000000000000600052603260045260246000fd5b9060005260206000200160009054906101000a900473ffffffffffffffffffffffffffffffffffffffff1691505b80806105c790611e97565b9150506104a0565b508273ffffffffffffffffffffffffffffffffffffffff168173ffffffffffffffffffffffffffffffffffffffff161461063e576040517f08c379a000000000000000000000000000000000000000000000000000000000815260040161063590611c79565b60405180910390fd5b60005b82600701805490508160ff1610156106be57600015158360080160009054906101000a900460ff161515146106ab576040517f08c379a00000000000000000000000000000000000000000000000000000000081526004016106a290611b19565b60405180910390fd5b80806106b690611e97565b915050610641565b50600015158260080160009054906101000a900460ff16151514610717576040517f08c379a000000000000000000000000000000000000000000000000000000000815260040161070e90611b39565b60405180910390fd5b81600701839080600181540180825580915050600190039060005260206000200160009091909190916101000a81548173ffffffffffffffffffffffffffffffffffffffff021916908373ffffffffffffffffffffffffffffffffffffffff16021790555060008373ffffffffffffffffffffffffffffffffffffffff1683600401546040516107a6906119c0565b60006040518083038185875af1925050503d80600081146107e3576040519150601f19603f3d011682016040523d82523d6000602084013e6107e8565b606091505b5050905080610861578260070180548061082b577f4e487b7100000000000000000000000000000000000000000000000000000000600052603160045260246000fd5b6001900381819060005260206000200160006101000a81549073ffffffffffffffffffffffffffffffffffffffff021916905590555b806108a1576040517f08c379a000000000000000000000000000000000000000000000000000000000815260040161089890611c19565b60405180910390fd5b7f98ea41b8882b2a571886154b9c5006960d1c48995b405a126fd06e5c4bc5923085856040516108d29291906119f0565b60405180910390a15050505050565b6000806000838152602001908152602001600020604051806101200160405290816000820154815260200160018201805461091b90611e65565b80601f016020809104026020016040519081016040528092919081815260200182805461094790611e65565b80156109945780601f1061096957610100808354040283529160200191610994565b820191906000526020600020905b81548152906001019060200180831161097757829003601f168201915b505050505081526020016002820160009054906101000a900473ffffffffffffffffffffffffffffffffffffffff1673ffffffffffffffffffffffffffffffffffffffff1673ffffffffffffffffffffffffffffffffffffffff16815260200160038201548152602001600482015481526020016005820154815260200160068201805480602002602001604051908101604052809291908181526020018280548015610a9657602002820191906000526020600020905b8160009054906101000a900473ffffffffffffffffffffffffffffffffffffffff1673ffffffffffffffffffffffffffffffffffffffff1681526020019060010190808311610a4c575b5050505050815260200160078201805480602002602001604051908101604052809291908181526020018280548015610b2457602002820191906000526020600020905b8160009054906101000a900473ffffffffffffffffffffffffffffffffffffffff1673ffffffffffffffffffffffffffffffffffffffff1681526020019060010190808311610ada575b505050505081526020016008820160009054906101000a900460ff161515151581525050905080610100015115610b90576040517f08c379a0000000000000000000000000000000000000000000000000000000008152600401610b8790611c59565b60405180910390fd5b62093a808160600151610ba39190611ce0565b421015610be5576040517f08c379a0000000000000000000000000000000000000000000000000000000008152600401610bdc90611c99565b60405180910390fd5b60008160e00151518260c0015151610bfd9190611d90565b90506000826080015182610c119190611d36565b905060018361010001901515908115158152505060003373ffffffffffffffffffffffffffffffffffffffff1682604051610c4b906119c0565b60006040518083038185875af1925050503d8060008114610c88576040519150601f19603f3d011682016040523d82523d6000602084013e610c8d565b606091505b5050905080610ca9576000846101000190151590811515815250505b80610ce9576040517f08c379a0000000000000000000000000000000000000000000000000000000008152600401610ce090611b59565b60405180910390fd5b7f393073ea1365f611c3d2f240c992960d2b99dc81715555d3fc40fc55ba80af9c85604051610d1891906119d5565b60405180910390a15050505050565b6000602052806000526040600020600091509050806000015490806001018054610d5090611e65565b80601f0160208091040260200160405190810160405280929190818152602001828054610d7c90611e65565b8015610dc95780601f10610d9e57610100808354040283529160200191610dc9565b820191906000526020600020905b815481529060010190602001808311610dac57829003601f168201915b5050505050908060020160009054906101000a900473ffffffffffffffffffffffffffffffffffffffff16908060030154908060040154908060050154908060080160009054906101000a900460ff16905087565b60003330878787604051602001610e39959493929190611961565b60405160208183030381529060405280519060200120905060008060008381526020019081526020016000206003015414610ea9576040517f08c379a0000000000000000000000000000000000000000000000000000000008152600401610ea090611bd9565b60405180910390fd5b60608060405180610120016040528084815260200186868080601f016020809104026020016040519081016040528093929190818152602001838380828437600081840152601f19601f8201169050808301925050505050505081526020013373ffffffffffffffffffffffffffffffffffffffff16815260200189815260200188815260200187815260200183815260200182815260200160001515815250600080858152602001908152602001600020600082015181600001556020820151816001019080519060200190610f819291906113e9565b5060408201518160020160006101000a81548173ffffffffffffffffffffffffffffffffffffffff021916908373ffffffffffffffffffffffffffffffffffffffff160217905550606082015181600301556080820151816004015560a0820151816005015560c082015181600601908051906020019061100392919061146f565b5060e082015181600701908051906020019061102092919061146f565b506101008201518160080160006101000a81548160ff0219169083151502179055509050507f2553138c3f9c9008f266dbdbe9fc64f5b71e098d06ef714a190a65a8b9fc6bf383338a898b8a8a6040516110809796959493929190611a19565b60405180910390a15050505050505050565b600080600083815260200190815260200160002060405180610120016040529081600082015481526020016001820180546110cc90611e65565b80601f01602080910402602001604051908101604052809291908181526020018280546110f890611e65565b80156111455780601f1061111a57610100808354040283529160200191611145565b820191906000526020600020905b81548152906001019060200180831161112857829003601f168201915b505050505081526020016002820160009054906101000a900473ffffffffffffffffffffffffffffffffffffffff1673ffffffffffffffffffffffffffffffffffffffff1673ffffffffffffffffffffffffffffffffffffffff1681526020016003820154815260200160048201548152602001600582015481526020016006820180548060200260200160405190810160405280929190818152602001828054801561124757602002820191906000526020600020905b8160009054906101000a900473ffffffffffffffffffffffffffffffffffffffff1673ffffffffffffffffffffffffffffffffffffffff16815260200190600101908083116111fd575b50505050508152602001600782018054806020026020016040519081016040528092919081815260200182805480156112d557602002820191906000526020600020905b8160009054906101000a900473ffffffffffffffffffffffffffffffffffffffff1673ffffffffffffffffffffffffffffffffffffffff168152602001906001019080831161128b575b505050505081526020016008820160009054906101000a900460ff1615151515815250509050806040015173ffffffffffffffffffffffffffffffffffffffff163373ffffffffffffffffffffffffffffffffffffffff161461136d576040517f08c379a000000000000000000000000000000000000000000000000000000000815260040161136490611bf9565b60405180910390fd5b60005b8160c00151518160ff1610156113e4576113d1838360c001518360ff16815181106113c4577f4e487b7100000000000000000000000000000000000000000000000000000000600052603260045260246000fd5b60200260200101516103f0565b80806113dc90611e97565b915050611370565b505050565b8280546113f590611e65565b90600052602060002090601f016020900481019282611417576000855561145e565b82601f1061143057805160ff191683800117855561145e565b8280016001018555821561145e579182015b8281111561145d578251825591602001919060010190611442565b5b50905061146b91906114f9565b5090565b8280548282559060005260206000209081019282156114e8579160200282015b828111156114e75782518260006101000a81548173ffffffffffffffffffffffffffffffffffffffff021916908373ffffffffffffffffffffffffffffffffffffffff1602179055509160200191906001019061148f565b5b5090506114f591906114f9565b5090565b5b808211156115125760008160009055506001016114fa565b5090565b600081359050611525816121ac565b92915050565b60008135905061153a816121c3565b92915050565b60008083601f84011261155257600080fd5b8235905067ffffffffffffffff81111561156b57600080fd5b60208301915083600182028301111561158357600080fd5b9250929050565b600081359050611599816121da565b92915050565b6000602082840312156115b157600080fd5b60006115bf8482850161152b565b91505092915050565b600080604083850312156115db57600080fd5b60006115e98582860161152b565b92505060206115fa85828601611516565b9150509250929050565b60008060008060006080868803121561161c57600080fd5b600061162a8882890161158a565b955050602061163b8882890161158a565b945050604061164c8882890161158a565b935050606086013567ffffffffffffffff81111561166957600080fd5b61167588828901611540565b92509250509295509295909350565b61168d81611dc4565b82525050565b6116a461169f82611dc4565b611ec1565b82525050565b6116b381611dd6565b82525050565b6116c281611de2565b82525050565b60006116d48385611ccf565b93506116e1838584611e23565b6116ea83611f4d565b840190509392505050565b600061170082611cb9565b61170a8185611ccf565b935061171a818560208601611e32565b61172381611f4d565b840191505092915050565b600061173b601f83611ccf565b915061174682611f6b565b602082019050919050565b600061175e600f83611ccf565b915061176982611f94565b602082019050919050565b6000611781601083611ccf565b915061178c82611fbd565b602082019050919050565b60006117a4601483611ccf565b91506117af82611fe6565b602082019050919050565b60006117c7600e83611ccf565b91506117d28261200f565b602082019050919050565b60006117ea601083611ccf565b91506117f582612038565b602082019050919050565b600061180d601183611ccf565b915061181882612061565b602082019050919050565b6000611830601183611ccf565b915061183b8261208a565b602082019050919050565b6000611853600e83611ccf565b915061185e826120b3565b602082019050919050565b6000611876601483611ccf565b9150611881826120dc565b602082019050919050565b6000611899600a83611ccf565b91506118a482612105565b602082019050919050565b60006118bc600c83611ccf565b91506118c78261212e565b602082019050919050565b60006118df601283611ccf565b91506118ea82612157565b602082019050919050565b6000611902600083611cc4565b915061190d82612180565b600082019050919050565b6000611925600983611ccf565b915061193082612183565b602082019050919050565b61194481611e0c565b82525050565b61195b61195682611e0c565b611ee5565b82525050565b600061196d8288611693565b60148201915061197d8287611693565b60148201915061198d828661194a565b60208201915061199d828561194a565b6020820191506119ad828461194a565b6020820191508190509695505050505050565b60006119cb826118f5565b9150819050919050565b60006020820190506119ea60008301846116b9565b92915050565b6000604082019050611a0560008301856116b9565b611a126020830184611684565b9392505050565b600060c082019050611a2e600083018a6116b9565b611a3b6020830189611684565b611a48604083018861193b565b611a55606083018761193b565b611a62608083018661193b565b81810360a0830152611a758184866116c8565b905098975050505050505050565b600060e082019050611a98600083018a6116b9565b8181036020830152611aaa81896116f5565b9050611ab96040830188611684565b611ac6606083018761193b565b611ad3608083018661193b565b611ae060a083018561193b565b611aed60c08301846116aa565b98975050505050505050565b60006020820190508181036000830152611b128161172e565b9050919050565b60006020820190508181036000830152611b3281611751565b9050919050565b60006020820190508181036000830152611b5281611774565b9050919050565b60006020820190508181036000830152611b7281611797565b9050919050565b60006020820190508181036000830152611b92816117ba565b9050919050565b60006020820190508181036000830152611bb2816117dd565b9050919050565b60006020820190508181036000830152611bd281611800565b9050919050565b60006020820190508181036000830152611bf281611823565b9050919050565b60006020820190508181036000830152611c1281611846565b9050919050565b60006020820190508181036000830152611c3281611869565b9050919050565b60006020820190508181036000830152611c528161188c565b9050919050565b60006020820190508181036000830152611c72816118af565b9050919050565b60006020820190508181036000830152611c92816118d2565b9050919050565b60006020820190508181036000830152611cb281611918565b9050919050565b600081519050919050565b600081905092915050565b600082825260208201905092915050565b6000611ceb82611e0c565b9150611cf683611e0c565b9250827fffffffffffffffffffffffffffffffffffffffffffffffffffffffffffffffff03821115611d2b57611d2a611eef565b5b828201905092915050565b6000611d4182611e0c565b9150611d4c83611e0c565b9250817fffffffffffffffffffffffffffffffffffffffffffffffffffffffffffffffff0483118215151615611d8557611d84611eef565b5b828202905092915050565b6000611d9b82611e0c565b9150611da683611e0c565b925082821015611db957611db8611eef565b5b828203905092915050565b6000611dcf82611dec565b9050919050565b60008115159050919050565b6000819050919050565b600073ffffffffffffffffffffffffffffffffffffffff82169050919050565b6000819050919050565b600060ff82169050919050565b82818337600083830152505050565b60005b83811015611e50578082015181840152602081019050611e35565b83811115611e5f576000848401525b50505050565b60006002820490506001821680611e7d57607f821691505b60208210811415611e9157611e90611f1e565b5b50919050565b6000611ea282611e16565b915060ff821415611eb657611eb5611eef565b5b600182019050919050565b6000611ecc82611ed3565b9050919050565b6000611ede82611f5e565b9050919050565b6000819050919050565b7f4e487b7100000000000000000000000000000000000000000000000000000000600052601160045260246000fd5b7f4e487b7100000000000000000000000000000000000000000000000000000000600052602260045260246000fd5b6000601f19601f8301169050919050565b60008160601b9050919050565b7f54686973204576656e7420486173205265616368656420436170616369747900600082015250565b7f414c524541445920434c41494d45440000000000000000000000000000000000600082015250565b7f414c52454144592050414944204f555400000000000000000000000000000000600082015250565b7f4661696c656420746f2073656e64204574686572000000000000000000000000600082015250565b7f4e6f7420417574686f72697a6564000000000000000000000000000000000000600082015250565b7f414c52454144592048415050454e454400000000000000000000000000000000600082015250565b7f414c524541445920434f4e4649524d4544000000000000000000000000000000600082015250565b7f416c726561647920526567697374726564000000000000000000000000000000600082015250565b7f4e4f5420417574686f72697a6564000000000000000000000000000000000000600082015250565b7f4661696c656420746f2073656e64206574686572000000000000000000000000600082015250565b7f4e4f5420454e4f55474800000000000000000000000000000000000000000000600082015250565b7f414c524541445920504149440000000000000000000000000000000000000000600082015250565b7f4e4f205253565020544f20434f4e4649524d0000000000000000000000000000600082015250565b50565b7f544f4f204541524c590000000000000000000000000000000000000000000000600082015250565b6121b581611dc4565b81146121c057600080fd5b50565b6121cc81611de2565b81146121d757600080fd5b50565b6121e381611e0c565b81146121ee57600080fd5b5056fea264697066735822122011797c446de5a5d8cf59fa9e10bcdd40aa1bde32adad35c4b26afb4c58af989664736f6c63430008040033",
  "linkReferences": {},
  "deployedLinkReferences": {}
}